:040000004FEF00F0CE
:100008001582FACF01F0FBCF02F0E9CF03F0EACF77
:1000180004F0E1CF05F0E2CF06F0D9CF07F0DACF50
:1000280008F0F3CF09F0F4CF0AF0F6CF0BF0F7CFD2
:100038000CF0F8CF0DF0F5CF0EF015C00FF016C08C
:1000480010F017C011F018C012F012C018F011C04B
:1000580017F010C016F00FC015F00EC0F5FF0DC058
:10006800F8FF0CC0F7FF0BC0F6FF0AC0F4FF09C089
:10007800F3FF08C0DAFF07C0D9FF06C0E2FF05C0DA
:10008800E1FF04C0EAFF03C0E9FF02C0FBFF01C0B3
:10009800FAFF15921100A2EF00F08080340E136E63
:1000A800F20EE82EFED7132EFCD780908082340EF5
:1000B800136EF20EE82EFED7132EFCD780928084A2
:1000C800340E136EF20EE82EFED7132EFCD7809452
:1000D8008086340E136EF20EE82EFED7132EFCD750
:1000E80080968088340E136EF20EE82EFED7132EFB
:1000F800FCD780981200A9EC00F0000E0F01386FB1
:1001080092909292929492969298809080928094F3
:100118008096809851EC00F0120003D07FEC00F03C
:1001280002D0000E146E1450000AD8B4F7D7010A92
:10013800D8B4F9D7030AD8B4F6D7F3D715901592DF
:10014800000EF86E000191EF00F0F28EF288F08652
:08015800F088F18CF286120020
:020000040020DA
:08000000FFFFFFFFFFFFFFFF00
:020000040030CA
:0E000000FF28192EFF3580FF0FC00FE00F40C4
:00000001FF
